{
  "contractName": "Lottery",
  "abi": [
    {
      "constant": true,
      "inputs": [],
      "name": "randNr",
      "outputs": [
        {
          "name": "",
          "type": "uint8"
        }
      ],
      "payable": false,
      "stateMutability": "view",
      "type": "function"
    },
    {
      "constant": false,
      "inputs": [],
      "name": "getDefinedNumber",
      "outputs": [
        {
          "name": "",
          "type": "uint8"
        }
      ],
      "payable": false,
      "stateMutability": "nonpayable",
      "type": "function"
    }
  ],
  "bytecode": "0x608060405260008060006101000a81548160ff021916908360ff16021790555034801561002b57600080fd5b506101198061003b6000396000f3fe6080604052600436106049576000357c0100000000000000000000000000000000000000000000000000000000900463ffffffff168063457e275114604e578063d47c4d3d14607c575b600080fd5b348015605957600080fd5b50606060aa565b604051808260ff1660ff16815260200191505060405180910390f35b348015608757600080fd5b50608e60bc565b604051808260ff1660ff16815260200191505060405180910390f35b6000809054906101000a900460ff1681565b600060056000806101000a81548160ff021916908360ff1602179055506000809054906101000a900460ff1690509056fea165627a7a72305820e0f138336143dae940e8a6b43ac3f091fbad19740bddbfac4dbd6e37e83466480029",
  "source": "pragma solidity >=0.4.21 <0.6.0;\r\n\r\ncontract Lottery {\r\n    uint8 public randNr = 0;\r\n\r\n    function getDefinedNumber() public returns (uint8){\r\n        randNr = 5;\r\n        return randNr;\r\n    }\r\n}\r\n",
  "sourcePath": "/mnt/c/Users/Fabio Maddaloni/Documents/Studium/FS 19/Blockchain and Overlay Networks/BClotteryEther/contracts/Lottery.sol",
  "compiler": {
    "name": "solc",
    "version": "0.5.0+commit.1d4f565a.Emscripten.clang"
  },
  "schemaVersion": "3.0.9",
  "updatedAt": "2019-05-09T06:55:21.258Z",
  "devdoc": {
    "methods": {}
  },
  "userdoc": {
    "methods": {}
  }
}