{
  "contractName": "RandomNumberGenerator",
  "abi": [
    {
      "constant": true,
      "inputs": [],
      "name": "randNr",
      "outputs": [
        {
          "name": "",
          "type": "uint8"
        }
      ],
      "payable": false,
      "stateMutability": "view",
      "type": "function"
    },
    {
      "constant": false,
      "inputs": [],
      "name": "getRandomNumber",
      "outputs": [
        {
          "name": "",
          "type": "uint8"
        }
      ],
      "payable": false,
      "stateMutability": "nonpayable",
      "type": "function"
    },
    {
      "constant": false,
      "inputs": [],
      "name": "getDefinedNumber",
      "outputs": [
        {
          "name": "",
          "type": "uint8"
        }
      ],
      "payable": false,
      "stateMutability": "nonpayable",
      "type": "function"
    }
  ],
  "bytecode": "0x608060405260008060006101000a81548160ff021916908360ff16021790555034801561002b57600080fd5b506101cc8061003b6000396000f3fe608060405260043610610057576000357c0100000000000000000000000000000000000000000000000000000000900463ffffffff168063457e27511461005c578063d47c4d3d1461008d578063dbdff2c1146100be575b600080fd5b34801561006857600080fd5b506100716100ef565b604051808260ff1660ff16815260200191505060405180910390f35b34801561009957600080fd5b506100a2610101565b604051808260ff1660ff16815260200191505060405180910390f35b3480156100ca57600080fd5b506100d3610132565b604051808260ff1660ff16815260200191505060405180910390f35b6000809054906101000a900460ff1681565b600060056000806101000a81548160ff021916908360ff1602179055506000809054906101000a900460ff16905090565b600060fb42446040516020018083815260200182815260200192505050604051602081830303815290604052805190602001206001900481151561017257fe5b066000806101000a81548160ff021916908360ff1602179055506000809054906101000a900460ff1690509056fea165627a7a723058206fe8e9b67b91424ee3a33035e1122420db4d531088951870e13ee39542bf19c80029",
  "source": "pragma solidity >=0.4.21 <0.6.0;\r\n\r\ncontract RandomNumberGenerator {\r\n    uint8 public randNr = 0;\r\n\r\n    function getRandomNumber() public returns (uint8) {\r\n        randNr = uint8(uint256(keccak256(abi.encodePacked(block.timestamp, block.difficulty)))%251);\r\n        return randNr;\r\n    }\r\n\r\n    function getDefinedNumber() public returns (uint8){\r\n        randNr = 5;\r\n        return randNr;\r\n    }\r\n\r\n}\r\n",
  "sourcePath": "/mnt/c/Users/Fabio Maddaloni/Documents/Studium/FS 19/Blockchain and Overlay Networks/BClotteryEther/contracts/RandomNumberGenerator.sol",
  "compiler": {
    "name": "solc",
    "version": "0.5.0+commit.1d4f565a.Emscripten.clang"
  },
  "schemaVersion": "3.0.9",
  "updatedAt": "2019-05-09T06:20:13.777Z",
  "devdoc": {
    "methods": {}
  },
  "userdoc": {
    "methods": {}
  }
}