{
  "contractName": "SimpleStorage",
  "abi": [
    {
      "constant": true,
      "inputs": [],
      "name": "storedNumber",
      "outputs": [
        {
          "name": "",
          "type": "uint256"
        }
      ],
      "payable": false,
      "stateMutability": "view",
      "type": "function"
    },
    {
      "constant": true,
      "inputs": [],
      "name": "storedData",
      "outputs": [
        {
          "name": "",
          "type": "uint256"
        }
      ],
      "payable": false,
      "stateMutability": "view",
      "type": "function"
    },
    {
      "anonymous": false,
      "inputs": [
        {
          "indexed": false,
          "name": "_message",
          "type": "string"
        }
      ],
      "name": "StorageSet",
      "type": "event"
    },
    {
      "constant": false,
      "inputs": [
        {
          "name": "x",
          "type": "uint256"
        },
        {
          "name": "y",
          "type": "uint256"
        }
      ],
      "name": "set",
      "outputs": [],
      "payable": false,
      "stateMutability": "nonpayable",
      "type": "function"
    }
  ],
  "bytecode": "0x608060405234801561001057600080fd5b506101a9806100206000396000f3fe608060405260043610610057576000357c0100000000000000000000000000000000000000000000000000000000900463ffffffff16806309ce9ccb1461005c5780631ab06ee5146100875780632a1afcd9146100cc575b600080fd5b34801561006857600080fd5b506100716100f7565b6040518082815260200191505060405180910390f35b34801561009357600080fd5b506100ca600480360360408110156100aa57600080fd5b8101908080359060200190929190803590602001909291905050506100fd565b005b3480156100d857600080fd5b506100e1610177565b6040518082815260200191505060405180910390f35b60015481565b81600081905550806001819055507f60cdc157ca4737a5d39a0e107532616e7bf6946e615228812c7f9bc9f81797a66040518080602001828103825260198152602001807f446174612073746f726564207375636365737366756c6c79210000000000000081525060200191505060405180910390a15050565b6000548156fea165627a7a723058200f8db612828a3a0bb088ababcff59600c30c4dea1c77272482ff22de3dc078580029",
  "source": "pragma solidity >=0.4.21 <0.6.0;\n\ncontract SimpleStorage {\n    event StorageSet(string _message);\n\n    uint public storedData;\n    uint public storedNumber;\n\n    function set(uint x, uint y) public {\n        storedData = x;\n        storedNumber = y;\n\n        emit StorageSet(\"Data stored successfully!\");\n    }\n}\n",
  "sourcePath": "/mnt/c/Users/Fabio Maddaloni/Documents/Studium/FS 19/Blockchain and Overlay Networks/BClotteryEther/contracts/SimpleStorage.sol",
  "compiler": {
    "name": "solc",
    "version": "0.5.0+commit.1d4f565a.Emscripten.clang"
  },
  "schemaVersion": "3.0.9",
  "updatedAt": "2019-05-09T06:55:21.238Z",
  "devdoc": {
    "methods": {}
  },
  "userdoc": {
    "methods": {}
  }
}